{
  "contractName": "tokenFactory",
  "abi": [
    {
      "inputs": [],
      "stateMutability": "nonpayable",
      "type": "constructor"
    },
    {
      "anonymous": false,
      "inputs": [
        {
          "indexed": true,
          "internalType": "address",
          "name": "account",
          "type": "address"
        },
        {
          "indexed": true,
          "internalType": "address",
          "name": "operator",
          "type": "address"
        },
        {
          "indexed": false,
          "internalType": "bool",
          "name": "approved",
          "type": "bool"
        }
      ],
      "name": "ApprovalForAll",
      "type": "event"
    },
    {
      "anonymous": false,
      "inputs": [
        {
          "indexed": true,
          "internalType": "bytes32",
          "name": "role",
          "type": "bytes32"
        },
        {
          "indexed": true,
          "internalType": "bytes32",
          "name": "previousAdminRole",
          "type": "bytes32"
        },
        {
          "indexed": true,
          "internalType": "bytes32",
          "name": "newAdminRole",
          "type": "bytes32"
        }
      ],
      "name": "RoleAdminChanged",
      "type": "event"
    },
    {
      "anonymous": false,
      "inputs": [
        {
          "indexed": true,
          "internalType": "bytes32",
          "name": "role",
          "type": "bytes32"
        },
        {
          "indexed": true,
          "internalType": "address",
          "name": "account",
          "type": "address"
        },
        {
          "indexed": true,
          "internalType": "address",
          "name": "sender",
          "type": "address"
        }
      ],
      "name": "RoleGranted",
      "type": "event"
    },
    {
      "anonymous": false,
      "inputs": [
        {
          "indexed": true,
          "internalType": "bytes32",
          "name": "role",
          "type": "bytes32"
        },
        {
          "indexed": true,
          "internalType": "address",
          "name": "account",
          "type": "address"
        },
        {
          "indexed": true,
          "internalType": "address",
          "name": "sender",
          "type": "address"
        }
      ],
      "name": "RoleRevoked",
      "type": "event"
    },
    {
      "anonymous": false,
      "inputs": [
        {
          "indexed": true,
          "internalType": "address",
          "name": "operator",
          "type": "address"
        },
        {
          "indexed": true,
          "internalType": "address",
          "name": "from",
          "type": "address"
        },
        {
          "indexed": true,
          "internalType": "address",
          "name": "to",
          "type": "address"
        },
        {
          "indexed": false,
          "internalType": "uint256[]",
          "name": "ids",
          "type": "uint256[]"
        },
        {
          "indexed": false,
          "internalType": "uint256[]",
          "name": "values",
          "type": "uint256[]"
        }
      ],
      "name": "TransferBatch",
      "type": "event"
    },
    {
      "anonymous": false,
      "inputs": [
        {
          "indexed": true,
          "internalType": "address",
          "name": "operator",
          "type": "address"
        },
        {
          "indexed": true,
          "internalType": "address",
          "name": "from",
          "type": "address"
        },
        {
          "indexed": true,
          "internalType": "address",
          "name": "to",
          "type": "address"
        },
        {
          "indexed": false,
          "internalType": "uint256",
          "name": "id",
          "type": "uint256"
        },
        {
          "indexed": false,
          "internalType": "uint256",
          "name": "value",
          "type": "uint256"
        }
      ],
      "name": "TransferSingle",
      "type": "event"
    },
    {
      "anonymous": false,
      "inputs": [
        {
          "indexed": false,
          "internalType": "string",
          "name": "value",
          "type": "string"
        },
        {
          "indexed": true,
          "internalType": "uint256",
          "name": "id",
          "type": "uint256"
        }
      ],
      "name": "URI",
      "type": "event"
    },
    {
      "inputs": [],
      "name": "DEFAULT_ADMIN_ROLE",
      "outputs": [
        {
          "internalType": "bytes32",
          "name": "",
          "type": "bytes32"
        }
      ],
      "stateMutability": "view",
      "type": "function"
    },
    {
      "inputs": [
        {
          "internalType": "address",
          "name": "account",
          "type": "address"
        },
        {
          "internalType": "uint256",
          "name": "id",
          "type": "uint256"
        }
      ],
      "name": "balanceOf",
      "outputs": [
        {
          "internalType": "uint256",
          "name": "",
          "type": "uint256"
        }
      ],
      "stateMutability": "view",
      "type": "function"
    },
    {
      "inputs": [
        {
          "internalType": "address[]",
          "name": "accounts",
          "type": "address[]"
        },
        {
          "internalType": "uint256[]",
          "name": "ids",
          "type": "uint256[]"
        }
      ],
      "name": "balanceOfBatch",
      "outputs": [
        {
          "internalType": "uint256[]",
          "name": "",
          "type": "uint256[]"
        }
      ],
      "stateMutability": "view",
      "type": "function"
    },
    {
      "inputs": [
        {
          "internalType": "bytes32",
          "name": "role",
          "type": "bytes32"
        }
      ],
      "name": "getRoleAdmin",
      "outputs": [
        {
          "internalType": "bytes32",
          "name": "",
          "type": "bytes32"
        }
      ],
      "stateMutability": "view",
      "type": "function"
    },
    {
      "inputs": [
        {
          "internalType": "bytes32",
          "name": "role",
          "type": "bytes32"
        },
        {
          "internalType": "address",
          "name": "account",
          "type": "address"
        }
      ],
      "name": "grantRole",
      "outputs": [],
      "stateMutability": "nonpayable",
      "type": "function"
    },
    {
      "inputs": [
        {
          "internalType": "bytes32",
          "name": "role",
          "type": "bytes32"
        },
        {
          "internalType": "address",
          "name": "account",
          "type": "address"
        }
      ],
      "name": "hasRole",
      "outputs": [
        {
          "internalType": "bool",
          "name": "",
          "type": "bool"
        }
      ],
      "stateMutability": "view",
      "type": "function"
    },
    {
      "inputs": [],
      "name": "hightToken",
      "outputs": [
        {
          "internalType": "uint256",
          "name": "_value",
          "type": "uint256"
        }
      ],
      "stateMutability": "view",
      "type": "function"
    },
    {
      "inputs": [
        {
          "internalType": "address",
          "name": "account",
          "type": "address"
        },
        {
          "internalType": "address",
          "name": "operator",
          "type": "address"
        }
      ],
      "name": "isApprovedForAll",
      "outputs": [
        {
          "internalType": "bool",
          "name": "",
          "type": "bool"
        }
      ],
      "stateMutability": "view",
      "type": "function"
    },
    {
      "inputs": [
        {
          "internalType": "bytes32",
          "name": "role",
          "type": "bytes32"
        },
        {
          "internalType": "address",
          "name": "account",
          "type": "address"
        }
      ],
      "name": "renounceRole",
      "outputs": [],
      "stateMutability": "nonpayable",
      "type": "function"
    },
    {
      "inputs": [
        {
          "internalType": "bytes32",
          "name": "role",
          "type": "bytes32"
        },
        {
          "internalType": "address",
          "name": "account",
          "type": "address"
        }
      ],
      "name": "revokeRole",
      "outputs": [],
      "stateMutability": "nonpayable",
      "type": "function"
    },
    {
      "inputs": [
        {
          "internalType": "address",
          "name": "from",
          "type": "address"
        },
        {
          "internalType": "address",
          "name": "to",
          "type": "address"
        },
        {
          "internalType": "uint256[]",
          "name": "ids",
          "type": "uint256[]"
        },
        {
          "internalType": "uint256[]",
          "name": "amounts",
          "type": "uint256[]"
        },
        {
          "internalType": "bytes",
          "name": "data",
          "type": "bytes"
        }
      ],
      "name": "safeBatchTransferFrom",
      "outputs": [],
      "stateMutability": "nonpayable",
      "type": "function"
    },
    {
      "inputs": [
        {
          "internalType": "address",
          "name": "from",
          "type": "address"
        },
        {
          "internalType": "address",
          "name": "to",
          "type": "address"
        },
        {
          "internalType": "uint256",
          "name": "id",
          "type": "uint256"
        },
        {
          "internalType": "uint256",
          "name": "amount",
          "type": "uint256"
        },
        {
          "internalType": "bytes",
          "name": "data",
          "type": "bytes"
        }
      ],
      "name": "safeTransferFrom",
      "outputs": [],
      "stateMutability": "nonpayable",
      "type": "function"
    },
    {
      "inputs": [
        {
          "internalType": "address",
          "name": "operator",
          "type": "address"
        },
        {
          "internalType": "bool",
          "name": "approved",
          "type": "bool"
        }
      ],
      "name": "setApprovalForAll",
      "outputs": [],
      "stateMutability": "nonpayable",
      "type": "function"
    },
    {
      "inputs": [
        {
          "internalType": "uint256",
          "name": "",
          "type": "uint256"
        }
      ],
      "name": "uri",
      "outputs": [
        {
          "internalType": "string",
          "name": "",
          "type": "string"
        }
      ],
      "stateMutability": "view",
      "type": "function"
    },
    {
      "inputs": [
        {
          "internalType": "uint256",
          "name": "",
          "type": "uint256"
        },
        {
          "internalType": "address",
          "name": "",
          "type": "address"
        }
      ],
      "name": "verificationOf",
      "outputs": [
        {
          "internalType": "bytes",
          "name": "",
          "type": "bytes"
        }
      ],
      "stateMutability": "view",
      "type": "function"
    },
    {
      "inputs": [
        {
          "internalType": "bytes4",
          "name": "interfaceId",
          "type": "bytes4"
        }
      ],
      "name": "supportsInterface",
      "outputs": [
        {
          "internalType": "bool",
          "name": "",
          "type": "bool"
        }
      ],
      "stateMutability": "view",
      "type": "function"
    },
    {
      "inputs": [
        {
          "internalType": "bytes",
          "name": "_pova",
          "type": "bytes"
        },
        {
          "internalType": "uint256",
          "name": "_amount",
          "type": "uint256"
        },
        {
          "internalType": "address",
          "name": "_addressGrower",
          "type": "address"
        }
      ],
      "name": "createYield",
      "outputs": [
        {
          "internalType": "bool",
          "name": "",
          "type": "bool"
        }
      ],
      "stateMutability": "nonpayable",
      "type": "function"
    },
    {
      "inputs": [
        {
          "internalType": "address",
          "name": "_grower",
          "type": "address"
        },
        {
          "internalType": "uint256",
          "name": "_tokenId",
          "type": "uint256"
        },
        {
          "internalType": "uint256",
          "name": "_amount",
          "type": "uint256"
        }
      ],
      "name": "burnYield",
      "outputs": [
        {
          "internalType": "bool",
          "name": "",
          "type": "bool"
        }
      ],
      "stateMutability": "nonpayable",
      "type": "function"
    }
  ],
  "bytecode": "0x60806040523480156200001157600080fd5b506040518060400160405280601581526020017f5245534552564120544f4b454e20464143544f5259000000000000000000000081525062000059816200007a60201b60201c565b50620000746000801b336200009660201b62000dba1760201c565b62000326565b80600290805190602001906200009292919062000211565b5050565b620000a88282620000ac60201b60201c565b5050565b620000be82826200019e60201b60201c565b6200019a5760016003600084815260200190815260200160002060000160008373ffffffffffffffffffffffffffffffffffffffff1673ffffffffffffffffffffffffffffffffffffffff16815260200190815260200160002060006101000a81548160ff0219169083151502179055506200013f6200020960201b60201c565b73ffffffffffffffffffffffffffffffffffffffff168173ffffffffffffffffffffffffffffffffffffffff16837f2f8788117e7eff1d82e926ec794901d17c78024a50270940304540a733656f0d60405160405180910390a45b5050565b60006003600084815260200190815260200160002060000160008373ffffffffffffffffffffffffffffffffffffffff1673ffffffffffffffffffffffffffffffffffffffff16815260200190815260200160002060009054906101000a900460ff16905092915050565b600033905090565b8280546200021f90620002c1565b90600052602060002090601f0160209004810192826200024357600085556200028f565b82601f106200025e57805160ff19168380011785556200028f565b828001600101855582156200028f579182015b828111156200028e57825182559160200191906001019062000271565b5b5090506200029e9190620002a2565b5090565b5b80821115620002bd576000816000905550600101620002a3565b5090565b60006002820490506001821680620002da57607f821691505b60208210811415620002f157620002f0620002f7565b5b50919050565b7f4e487b7100000000000000000000000000000000000000000000000000000000600052602260045260246000fd5b613ae280620003366000396000f3fe608060405234801561001057600080fd5b50600436106101155760003560e01c80634e1273f4116100a2578063a22cb46511610071578063a22cb4651461032a578063d547741f14610346578063d953426514610362578063e985e9c514610392578063f242432a146103c257610115565b80634e1273f41461027c5780637f5ebce1146102ac57806391d14854146102dc578063a217fddf1461030c57610115565b806311e6ef35116100e957806311e6ef35146101da578063248a9ca3146101f85780632eb2c2d6146102285780632f2ff15d1461024457806336568abe1461026057610115565b8062fdd58e1461011a57806301ffc9a71461014a57806303d3a1d71461017a5780630e89341c146101aa575b600080fd5b610134600480360381019061012f9190612622565b6103de565b6040516101419190613055565b60405180910390f35b610164600480360381019061015f91906127a7565b6104a7565b6040516101719190612de0565b60405180910390f35b610194600480360381019061018f919061265e565b610539565b6040516101a19190612de0565b60405180910390f35b6101c460048036038101906101bf9190612860565b610551565b6040516101d19190612e53565b60405180910390f35b6101e26105e5565b6040516101ef9190613055565b60405180910390f35b610212600480360381019061020d9190612742565b6105f1565b60405161021f9190612dfb565b60405180910390f35b610242600480360381019061023d9190612498565b610611565b005b61025e6004803603810190610259919061276b565b6106b2565b005b61027a6004803603810190610275919061276b565b6106db565b005b610296600480360381019061029191906126ad565b61075e565b6040516102a39190612d87565b60405180910390f35b6102c660048036038101906102c19190612889565b61090f565b6040516102d39190612e31565b60405180910390f35b6102f660048036038101906102f1919061276b565b6109bc565b6040516103039190612de0565b60405180910390f35b610314610a27565b6040516103219190612dfb565b60405180910390f35b610344600480360381019061033f91906125e6565b610a2e565b005b610360600480360381019061035b919061276b565b610baf565b005b61037c600480360381019061037791906127f9565b610bd8565b6040516103899190612de0565b60405180910390f35b6103ac60048036038101906103a7919061245c565b610c85565b6040516103b99190612de0565b60405180910390f35b6103dc60048036038101906103d79190612557565b610d19565b005b60008073ffffffffffffffffffffffffffffffffffffffff168373ffffffffffffffffffffffffffffffffffffffff16141561044f576040517f08c379a000000000000000000000000000000000000000000000000000000000815260040161044690612ed5565b60405180910390fd5b60008083815260200190815260200160002060008473ffffffffffffffffffffffffffffffffffffffff1673ffffffffffffffffffffffffffffffffffffffff16815260200190815260200160002054905092915050565b60003073ffffffffffffffffffffffffffffffffffffffff166301ffc9a7836040518263ffffffff1660e01b81526004016104e29190612e16565b60206040518083038186803b1580156104fa57600080fd5b505afa15801561050e573d6000803e3d6000fd5b505050506040513d601f19601f820116820180604052508101906105329190612719565b9050919050565b6000610546848484610dc8565b600190509392505050565b6060600280546105609061335d565b80601f016020809104026020016040519081016040528092919081815260200182805461058c9061335d565b80156105d95780601f106105ae576101008083540402835291602001916105d9565b820191906000526020600020905b8154815290600101906020018083116105bc57829003601f168201915b50505050509050919050565b60048060000154905081565b600060036000838152602001908152602001600020600101549050919050565b610619610fe5565b73ffffffffffffffffffffffffffffffffffffffff168573ffffffffffffffffffffffffffffffffffffffff16148061065f575061065e85610659610fe5565b610c85565b5b61069e576040517f08c379a000000000000000000000000000000000000000000000000000000000815260040161069590612f55565b60405180910390fd5b6106ab8585858585610fed565b5050505050565b6106bb826105f1565b6106cc816106c7610fe5565b61134d565b6106d683836113ea565b505050565b6106e3610fe5565b73ffffffffffffffffffffffffffffffffffffffff168173ffffffffffffffffffffffffffffffffffffffff1614610750576040517f08c379a000000000000000000000000000000000000000000000000000000000815260040161074790613035565b60405180910390fd5b61075a82826114cb565b5050565b606081518351146107a4576040517f08c379a000000000000000000000000000000000000000000000000000000000815260040161079b90612fd5565b60405180910390fd5b6000835167ffffffffffffffff8111156107e7577f4e487b7100000000000000000000000000000000000000000000000000000000600052604160045260246000fd5b6040519080825280602002602001820160405280156108155781602001602082028036833780820191505090505b50905060005b8451811015610904576108ae858281518110610860577f4e487b7100000000000000000000000000000000000000000000000000000000600052603260045260246000fd5b60200260200101518583815181106108a1577f4e487b7100000000000000000000000000000000000000000000000000000000600052603260045260246000fd5b60200260200101516103de565b8282815181106108e7577f4e487b7100000000000000000000000000000000000000000000000000000000600052603260045260246000fd5b602002602001018181525050806108fd906133c0565b905061081b565b508091505092915050565b600560205281600052604060002060205280600052604060002060009150915050805461093b9061335d565b80601f01602080910402602001604051908101604052809291908181526020018280546109679061335d565b80156109b45780601f10610989576101008083540402835291602001916109b4565b820191906000526020600020905b81548152906001019060200180831161099757829003601f168201915b505050505081565b60006003600084815260200190815260200160002060000160008373ffffffffffffffffffffffffffffffffffffffff1673ffffffffffffffffffffffffffffffffffffffff16815260200190815260200160002060009054906101000a900460ff16905092915050565b6000801b81565b8173ffffffffffffffffffffffffffffffffffffffff16610a4d610fe5565b73ffffffffffffffffffffffffffffffffffffffff161415610aa4576040517f08c379a0000000000000000000000000000000000000000000000000000000008152600401610a9b90612fb5565b60405180910390fd5b8060016000610ab1610fe5565b73ffffffffffffffffffffffffffffffffffffffff1673ffffffffffffffffffffffffffffffffffffffff16815260200190815260200160002060008473ffffffffffffffffffffffffffffffffffffffff1673ffffffffffffffffffffffffffffffffffffffff16815260200190815260200160002060006101000a81548160ff0219169083151502179055508173ffffffffffffffffffffffffffffffffffffffff16610b5e610fe5565b73ffffffffffffffffffffffffffffffffffffffff167f17307eab39ab6107e8899845ad3d59bd9653f200f220920489ca2b5937696c3183604051610ba39190612de0565b60405180910390a35050565b610bb8826105f1565b610bc981610bc4610fe5565b61134d565b610bd383836114cb565b505050565b60008060001b610bef81610bea610fe5565b61134d565b610bf960046115ad565b6000610c0560046115c3565b9050856005600083815260200190815260200160002060008673ffffffffffffffffffffffffffffffffffffffff1673ffffffffffffffffffffffffffffffffffffffff1681526020019081526020016000209080519060200190610c6b929190612192565b50610c78848287896115d1565b6001925050509392505050565b6000600160008473ffffffffffffffffffffffffffffffffffffffff1673ffffffffffffffffffffffffffffffffffffffff16815260200190815260200160002060008373ffffffffffffffffffffffffffffffffffffffff1673ffffffffffffffffffffffffffffffffffffffff16815260200190815260200160002060009054906101000a900460ff16905092915050565b610d21610fe5565b73ffffffffffffffffffffffffffffffffffffffff168573ffffffffffffffffffffffffffffffffffffffff161480610d675750610d6685610d61610fe5565b610c85565b5b610da6576040517f08c379a0000000000000000000000000000000000000000000000000000000008152600401610d9d90612f15565b60405180910390fd5b610db38585858585611767565b5050505050565b610dc482826113ea565b5050565b600073ffffffffffffffffffffffffffffffffffffffff168373ffffffffffffffffffffffffffffffffffffffff161415610e38576040517f08c379a0000000000000000000000000000000000000000000000000000000008152600401610e2f90612f75565b60405180910390fd5b6000610e42610fe5565b9050610e7281856000610e54876119e9565b610e5d876119e9565b60405180602001604052806000815250611aaf565b600080600085815260200190815260200160002060008673ffffffffffffffffffffffffffffffffffffffff1673ffffffffffffffffffffffffffffffffffffffff16815260200190815260200160002054905082811015610f09576040517f08c379a0000000000000000000000000000000000000000000000000000000008152600401610f0090612ef5565b60405180910390fd5b82810360008086815260200190815260200160002060008773ffffffffffffffffffffffffffffffffffffffff1673ffffffffffffffffffffffffffffffffffffffff16815260200190815260200160002081905550600073ffffffffffffffffffffffffffffffffffffffff168573ffffffffffffffffffffffffffffffffffffffff168373ffffffffffffffffffffffffffffffffffffffff167fc3d58168c5ae7397731d063d5bbf3d657854427343f4c083240f7aacaa2d0f628787604051610fd6929190613070565b60405180910390a45050505050565b600033905090565b8151835114611031576040517f08c379a000000000000000000000000000000000000000000000000000000000815260040161102890612ff5565b60405180910390fd5b600073ffffffffffffffffffffffffffffffffffffffff168473ffffffffffffffffffffffffffffffffffffffff1614156110a1576040517f08c379a000000000000000000000000000000000000000000000000000000000815260040161109890612f35565b60405180910390fd5b60006110ab610fe5565b90506110bb818787878787611aaf565b60005b84518110156112b8576000858281518110611102577f4e487b7100000000000000000000000000000000000000000000000000000000600052603260045260246000fd5b602002602001015190506000858381518110611147577f4e487b7100000000000000000000000000000000000000000000000000000000600052603260045260246000fd5b60200260200101519050600080600084815260200190815260200160002060008b73ffffffffffffffffffffffffffffffffffffffff1673ffffffffffffffffffffffffffffffffffffffff168152602001908152602001600020549050818110156111e8576040517f08c379a00000000000000000000000000000000000000000000000000000000081526004016111df90612f95565b60405180910390fd5b81810360008085815260200190815260200160002060008c73ffffffffffffffffffffffffffffffffffffffff1673ffffffffffffffffffffffffffffffffffffffff168152602001908152602001600020819055508160008085815260200190815260200160002060008b73ffffffffffffffffffffffffffffffffffffffff1673ffffffffffffffffffffffffffffffffffffffff168152602001908152602001600020600082825461129d91906131c3565b92505081905550505050806112b1906133c0565b90506110be565b508473ffffffffffffffffffffffffffffffffffffffff168673ffffffffffffffffffffffffffffffffffffffff168273ffffffffffffffffffffffffffffffffffffffff167f4a39dc06d4c0dbc64b70af90fd698a233a518aa5d07e595d983b8c0526c8f7fb878760405161132f929190612da9565b60405180910390a4611345818787878787611ab7565b505050505050565b61135782826109bc565b6113e65761137c8173ffffffffffffffffffffffffffffffffffffffff166014611c9e565b61138a8360001c6020611c9e565b60405160200161139b929190612c8b565b6040516020818303038152906040526040517f08c379a00000000000000000000000000000000000000000000000000000000081526004016113dd9190612e53565b60405180910390fd5b5050565b6113f482826109bc565b6114c75760016003600084815260200190815260200160002060000160008373ffffffffffffffffffffffffffffffffffffffff1673ffffffffffffffffffffffffffffffffffffffff16815260200190815260200160002060006101000a81548160ff02191690831515021790555061146c610fe5565b73ffffffffffffffffffffffffffffffffffffffff168173ffffffffffffffffffffffffffffffffffffffff16837f2f8788117e7eff1d82e926ec794901d17c78024a50270940304540a733656f0d60405160405180910390a45b5050565b6114d582826109bc565b156115a95760006003600084815260200190815260200160002060000160008373ffffffffffffffffffffffffffffffffffffffff1673ffffffffffffffffffffffffffffffffffffffff16815260200190815260200160002060006101000a81548160ff02191690831515021790555061154e610fe5565b73ffffffffffffffffffffffffffffffffffffffff168173ffffffffffffffffffffffffffffffffffffffff16837ff6391f5c32d9c69d2a47ea670b442974b53935d1edc7fd64eb21e047a839171b60405160405180910390a45b5050565b6001816000016000828254019250508190555050565b600081600001549050919050565b600073ffffffffffffffffffffffffffffffffffffffff168473ffffffffffffffffffffffffffffffffffffffff161415611641576040517f08c379a000000000000000000000000000000000000000000000000000000000815260040161163890613015565b60405180910390fd5b600061164b610fe5565b905061166c8160008761165d886119e9565b611666886119e9565b87611aaf565b8260008086815260200190815260200160002060008773ffffffffffffffffffffffffffffffffffffffff1673ffffffffffffffffffffffffffffffffffffffff16815260200190815260200160002060008282546116cb91906131c3565b925050819055508473ffffffffffffffffffffffffffffffffffffffff16600073ffffffffffffffffffffffffffffffffffffffff168273ffffffffffffffffffffffffffffffffffffffff167fc3d58168c5ae7397731d063d5bbf3d657854427343f4c083240f7aacaa2d0f628787604051611749929190613070565b60405180910390a461176081600087878787611f98565b5050505050565b600073ffffffffffffffffffffffffffffffffffffffff168473ffffffffffffffffffffffffffffffffffffffff1614156117d7576040517f08c379a00000000000000000000000000000000000000000000000000000000081526004016117ce90612f35565b60405180910390fd5b60006117e1610fe5565b90506118018187876117f2886119e9565b6117fb886119e9565b87611aaf565b600080600086815260200190815260200160002060008873ffffffffffffffffffffffffffffffffffffffff1673ffffffffffffffffffffffffffffffffffffffff16815260200190815260200160002054905083811015611898576040517f08c379a000000000000000000000000000000000000000000000000000000000815260040161188f90612f95565b60405180910390fd5b83810360008087815260200190815260200160002060008973ffffffffffffffffffffffffffffffffffffffff1673ffffffffffffffffffffffffffffffffffffffff168152602001908152602001600020819055508360008087815260200190815260200160002060008873ffffffffffffffffffffffffffffffffffffffff1673ffffffffffffffffffffffffffffffffffffffff168152602001908152602001600020600082825461194d91906131c3565b925050819055508573ffffffffffffffffffffffffffffffffffffffff168773ffffffffffffffffffffffffffffffffffffffff168373ffffffffffffffffffffffffffffffffffffffff167fc3d58168c5ae7397731d063d5bbf3d657854427343f4c083240f7aacaa2d0f6288886040516119ca929190613070565b60405180910390a46119e0828888888888611f98565b50505050505050565b60606000600167ffffffffffffffff811115611a2e577f4e487b7100000000000000000000000000000000000000000000000000000000600052604160045260246000fd5b604051908082528060200260200182016040528015611a5c5781602001602082028036833780820191505090505b5090508281600081518110611a9a577f4e487b7100000000000000000000000000000000000000000000000000000000600052603260045260246000fd5b60200260200101818152505080915050919050565b505050505050565b611ad68473ffffffffffffffffffffffffffffffffffffffff1661217f565b15611c96578373ffffffffffffffffffffffffffffffffffffffff1663bc197c8187878686866040518663ffffffff1660e01b8152600401611b1c959493929190612cc5565b602060405180830381600087803b158015611b3657600080fd5b505af1925050508015611b6757506040513d601f19601f82011682018060405250810190611b6491906127d0565b60015b611c0d57611b73613496565b806308c379a01415611bd05750611b886139a3565b80611b935750611bd2565b806040517f08c379a0000000000000000000000000000000000000000000000000000000008152600401611bc79190612e53565b60405180910390fd5b505b6040517f08c379a0000000000000000000000000000000000000000000000000000000008152600401611c0490612e75565b60405180910390fd5b63bc197c8160e01b7bffffffffffffffffffffffffffffffffffffffffffffffffffffffff1916817bffffffffffffffffffffffffffffffffffffffffffffffffffffffff191614611c94576040517f08c379a0000000000000000000000000000000000000000000000000000000008152600401611c8b90612eb5565b60405180910390fd5b505b505050505050565b606060006002836002611cb19190613219565b611cbb91906131c3565b67ffffffffffffffff811115611cfa577f4e487b7100000000000000000000000000000000000000000000000000000000600052604160045260246000fd5b6040519080825280601f01601f191660200182016040528015611d2c5781602001600182028036833780820191505090505b5090507f300000000000000000000000000000000000000000000000000000000000000081600081518110611d8a577f4e487b7100000000000000000000000000000000000000000000000000000000600052603260045260246000fd5b60200101907effffffffffffffffffffffffffffffffffffffffffffffffffffffffffffff1916908160001a9053507f780000000000000000000000000000000000000000000000000000000000000081600181518110611e14577f4e487b7100000000000000000000000000000000000000000000000000000000600052603260045260246000fd5b60200101907effffffffffffffffffffffffffffffffffffffffffffffffffffffffffffff1916908160001a90535060006001846002611e549190613219565b611e5e91906131c3565b90505b6001811115611f4a577f3031323334353637383961626364656600000000000000000000000000000000600f861660108110611ec6577f4e487b7100000000000000000000000000000000000000000000000000000000600052603260045260246000fd5b1a60f81b828281518110611f03577f4e487b7100000000000000000000000000000000000000000000000000000000600052603260045260246000fd5b60200101907effffffffffffffffffffffffffffffffffffffffffffffffffffffffffffff1916908160001a905350600485901c945080611f4390613333565b9050611e61565b5060008414611f8e576040517f08c379a0000000000000000000000000000000000000000000000000000000008152600401611f8590612e95565b60405180910390fd5b8091505092915050565b611fb78473ffffffffffffffffffffffffffffffffffffffff1661217f565b15612177578373ffffffffffffffffffffffffffffffffffffffff1663f23a6e6187878686866040518663ffffffff1660e01b8152600401611ffd959493929190612d2d565b602060405180830381600087803b15801561201757600080fd5b505af192505050801561204857506040513d601f19601f8201168201806040525081019061204591906127d0565b60015b6120ee57612054613496565b806308c379a014156120b157506120696139a3565b8061207457506120b3565b806040517f08c379a00000000000000000000000000000000000000000000000000000000081526004016120a89190612e53565b60405180910390fd5b505b6040517f08c379a00000000000000000000000000000000000000000000000000000000081526004016120e590612e75565b60405180910390fd5b63f23a6e6160e01b7bffffffffffffffffffffffffffffffffffffffffffffffffffffffff1916817bffffffffffffffffffffffffffffffffffffffffffffffffffffffff191614612175576040517f08c379a000000000000000000000000000000000000000000000000000000000815260040161216c90612eb5565b60405180910390fd5b505b505050505050565b600080823b905060008111915050919050565b82805461219e9061335d565b90600052602060002090601f0160209004810192826121c05760008555612207565b82601f106121d957805160ff1916838001178555612207565b82800160010185558215612207579182015b828111156122065782518255916020019190600101906121eb565b5b5090506122149190612218565b5090565b5b80821115612231576000816000905550600101612219565b5090565b6000612248612243846130be565b613099565b9050808382526020820190508285602086028201111561226757600080fd5b60005b85811015612297578161227d888261234b565b84526020840193506020830192505060018101905061226a565b5050509392505050565b60006122b46122af846130ea565b613099565b905080838252602082019050828560208602820111156122d357600080fd5b60005b8581101561230357816122e98882612447565b8452602084019350602083019250506001810190506122d6565b5050509392505050565b600061232061231b84613116565b613099565b90508281526020810184848401111561233857600080fd5b6123438482856132f1565b509392505050565b60008135905061235a81613a39565b92915050565b600082601f83011261237157600080fd5b8135612381848260208601612235565b91505092915050565b600082601f83011261239b57600080fd5b81356123ab8482602086016122a1565b91505092915050565b6000813590506123c381613a50565b92915050565b6000815190506123d881613a50565b92915050565b6000813590506123ed81613a67565b92915050565b60008135905061240281613a7e565b92915050565b60008151905061241781613a7e565b92915050565b600082601f83011261242e57600080fd5b813561243e84826020860161230d565b91505092915050565b60008135905061245681613a95565b92915050565b6000806040838503121561246f57600080fd5b600061247d8582860161234b565b925050602061248e8582860161234b565b9150509250929050565b600080600080600060a086880312156124b057600080fd5b60006124be8882890161234b565b95505060206124cf8882890161234b565b945050604086013567ffffffffffffffff8111156124ec57600080fd5b6124f88882890161238a565b935050606086013567ffffffffffffffff81111561251557600080fd5b6125218882890161238a565b925050608086013567ffffffffffffffff81111561253e57600080fd5b61254a8882890161241d565b9150509295509295909350565b600080600080600060a0868803121561256f57600080fd5b600061257d8882890161234b565b955050602061258e8882890161234b565b945050604061259f88828901612447565b93505060606125b088828901612447565b925050608086013567ffffffffffffffff8111156125cd57600080fd5b6125d98882890161241d565b9150509295509295909350565b600080604083850312156125f957600080fd5b60006126078582860161234b565b9250506020612618858286016123b4565b9150509250929050565b6000806040838503121561263557600080fd5b60006126438582860161234b565b925050602061265485828601612447565b9150509250929050565b60008060006060848603121561267357600080fd5b60006126818682870161234b565b935050602061269286828701612447565b92505060406126a386828701612447565b9150509250925092565b600080604083850312156126c057600080fd5b600083013567ffffffffffffffff8111156126da57600080fd5b6126e685828601612360565b925050602083013567ffffffffffffffff81111561270357600080fd5b61270f8582860161238a565b9150509250929050565b60006020828403121561272b57600080fd5b6000612739848285016123c9565b91505092915050565b60006020828403121561275457600080fd5b6000612762848285016123de565b91505092915050565b6000806040838503121561277e57600080fd5b600061278c858286016123de565b925050602061279d8582860161234b565b9150509250929050565b6000602082840312156127b957600080fd5b60006127c7848285016123f3565b91505092915050565b6000602082840312156127e257600080fd5b60006127f084828501612408565b91505092915050565b60008060006060848603121561280e57600080fd5b600084013567ffffffffffffffff81111561282857600080fd5b6128348682870161241d565b935050602061284586828701612447565b92505060406128568682870161234b565b9150509250925092565b60006020828403121561287257600080fd5b600061288084828501612447565b91505092915050565b6000806040838503121561289c57600080fd5b60006128aa85828601612447565b92505060206128bb8582860161234b565b9150509250929050565b60006128d18383612c6d565b60208301905092915050565b6128e681613273565b82525050565b60006128f782613157565b6129018185613185565b935061290c83613147565b8060005b8381101561293d57815161292488826128c5565b975061292f83613178565b925050600181019050612910565b5085935050505092915050565b61295381613285565b82525050565b61296281613291565b82525050565b6129718161329b565b82525050565b600061298282613162565b61298c8185613196565b935061299c818560208601613300565b6129a5816134b8565b840191505092915050565b60006129bb8261316d565b6129c581856131a7565b93506129d5818560208601613300565b6129de816134b8565b840191505092915050565b60006129f48261316d565b6129fe81856131b8565b9350612a0e818560208601613300565b80840191505092915050565b6000612a276034836131a7565b9150612a32826134d6565b604082019050919050565b6000612a4a6020836131a7565b9150612a5582613525565b602082019050919050565b6000612a6d6028836131a7565b9150612a788261354e565b604082019050919050565b6000612a90602b836131a7565b9150612a9b8261359d565b604082019050919050565b6000612ab36024836131a7565b9150612abe826135ec565b604082019050919050565b6000612ad66029836131a7565b9150612ae18261363b565b604082019050919050565b6000612af96025836131a7565b9150612b048261368a565b604082019050919050565b6000612b1c6032836131a7565b9150612b27826136d9565b604082019050919050565b6000612b3f6023836131a7565b9150612b4a82613728565b604082019050919050565b6000612b62602a836131a7565b9150612b6d82613777565b604082019050919050565b6000612b856017836131b8565b9150612b90826137c6565b601782019050919050565b6000612ba86029836131a7565b9150612bb3826137ef565b604082019050919050565b6000612bcb6029836131a7565b9150612bd68261383e565b604082019050919050565b6000612bee6028836131a7565b9150612bf98261388d565b604082019050919050565b6000612c116021836131a7565b9150612c1c826138dc565b604082019050919050565b6000612c346011836131b8565b9150612c3f8261392b565b601182019050919050565b6000612c57602f836131a7565b9150612c6282613954565b604082019050919050565b612c76816132e7565b82525050565b612c85816132e7565b82525050565b6000612c9682612b78565b9150612ca282856129e9565b9150612cad82612c27565b9150612cb982846129e9565b91508190509392505050565b600060a082019050612cda60008301886128dd565b612ce760208301876128dd565b8181036040830152612cf981866128ec565b90508181036060830152612d0d81856128ec565b90508181036080830152612d218184612977565b90509695505050505050565b600060a082019050612d4260008301886128dd565b612d4f60208301876128dd565b612d5c6040830186612c7c565b612d696060830185612c7c565b8181036080830152612d7b8184612977565b90509695505050505050565b60006020820190508181036000830152612da181846128ec565b905092915050565b60006040820190508181036000830152612dc381856128ec565b90508181036020830152612dd781846128ec565b90509392505050565b6000602082019050612df5600083018461294a565b92915050565b6000602082019050612e106000830184612959565b92915050565b6000602082019050612e2b6000830184612968565b92915050565b60006020820190508181036000830152612e4b8184612977565b905092915050565b60006020820190508181036000830152612e6d81846129b0565b905092915050565b60006020820190508181036000830152612e8e81612a1a565b9050919050565b60006020820190508181036000830152612eae81612a3d565b9050919050565b60006020820190508181036000830152612ece81612a60565b9050919050565b60006020820190508181036000830152612eee81612a83565b9050919050565b60006020820190508181036000830152612f0e81612aa6565b9050919050565b60006020820190508181036000830152612f2e81612ac9565b9050919050565b60006020820190508181036000830152612f4e81612aec565b9050919050565b60006020820190508181036000830152612f6e81612b0f565b9050919050565b60006020820190508181036000830152612f8e81612b32565b9050919050565b60006020820190508181036000830152612fae81612b55565b9050919050565b60006020820190508181036000830152612fce81612b9b565b9050919050565b60006020820190508181036000830152612fee81612bbe565b9050919050565b6000602082019050818103600083015261300e81612be1565b9050919050565b6000602082019050818103600083015261302e81612c04565b9050919050565b6000602082019050818103600083015261304e81612c4a565b9050919050565b600060208201905061306a6000830184612c7c565b92915050565b60006040820190506130856000830185612c7c565b6130926020830184612c7c565b9392505050565b60006130a36130b4565b90506130af828261338f565b919050565b6000604051905090565b600067ffffffffffffffff8211156130d9576130d8613467565b5b602082029050602081019050919050565b600067ffffffffffffffff82111561310557613104613467565b5b602082029050602081019050919050565b600067ffffffffffffffff82111561313157613130613467565b5b61313a826134b8565b9050602081019050919050565b6000819050602082019050919050565b600081519050919050565b600081519050919050565b600081519050919050565b6000602082019050919050565b600082825260208201905092915050565b600082825260208201905092915050565b600082825260208201905092915050565b600081905092915050565b60006131ce826132e7565b91506131d9836132e7565b9250827fffffffffffffffffffffffffffffffffffffffffffffffffffffffffffffffff0382111561320e5761320d613409565b5b828201905092915050565b6000613224826132e7565b915061322f836132e7565b9250817fffffffffffffffffffffffffffffffffffffffffffffffffffffffffffffffff048311821515161561326857613267613409565b5b828202905092915050565b600061327e826132c7565b9050919050565b60008115159050919050565b6000819050919050565b60007fffffffff0000000000000000000000000000000000000000000000000000000082169050919050565b600073ffffffffffffffffffffffffffffffffffffffff82169050919050565b6000819050919050565b82818337600083830152505050565b60005b8381101561331e578082015181840152602081019050613303565b8381111561332d576000848401525b50505050565b600061333e826132e7565b9150600082141561335257613351613409565b5b600182039050919050565b6000600282049050600182168061337557607f821691505b6020821081141561338957613388613438565b5b50919050565b613398826134b8565b810181811067ffffffffffffffff821117156133b7576133b6613467565b5b80604052505050565b60006133cb826132e7565b91507fffffffffffffffffffffffffffffffffffffffffffffffffffffffffffffffff8214156133fe576133fd613409565b5b600182019050919050565b7f4e487b7100000000000000000000000000000000000000000000000000000000600052601160045260246000fd5b7f4e487b7100000000000000000000000000000000000000000000000000000000600052602260045260246000fd5b7f4e487b7100000000000000000000000000000000000000000000000000000000600052604160045260246000fd5b600060033d11156134b55760046000803e6134b26000516134c9565b90505b90565b6000601f19601f8301169050919050565b60008160e01c9050919050565b7f455243313135353a207472616e7366657220746f206e6f6e204552433131353560008201527f526563656976657220696d706c656d656e746572000000000000000000000000602082015250565b7f537472696e67733a20686578206c656e67746820696e73756666696369656e74600082015250565b7f455243313135353a204552433131353552656365697665722072656a6563746560008201527f6420746f6b656e73000000000000000000000000000000000000000000000000602082015250565b7f455243313135353a2062616c616e636520717565727920666f7220746865207a60008201527f65726f2061646472657373000000000000000000000000000000000000000000602082015250565b7f455243313135353a206275726e20616d6f756e7420657863656564732062616c60008201527f616e636500000000000000000000000000000000000000000000000000000000602082015250565b7f455243313135353a2063616c6c6572206973206e6f74206f776e6572206e6f7260008201527f20617070726f7665640000000000000000000000000000000000000000000000602082015250565b7f455243313135353a207472616e7366657220746f20746865207a65726f20616460008201527f6472657373000000000000000000000000000000000000000000000000000000602082015250565b7f455243313135353a207472616e736665722063616c6c6572206973206e6f742060008201527f6f776e6572206e6f7220617070726f7665640000000000000000000000000000602082015250565b7f455243313135353a206275726e2066726f6d20746865207a65726f206164647260008201527f6573730000000000000000000000000000000000000000000000000000000000602082015250565b7f455243313135353a20696e73756666696369656e742062616c616e636520666f60008201527f72207472616e7366657200000000000000000000000000000000000000000000602082015250565b7f416363657373436f6e74726f6c3a206163636f756e7420000000000000000000600082015250565b7f455243313135353a2073657474696e6720617070726f76616c2073746174757360008201527f20666f722073656c660000000000000000000000000000000000000000000000602082015250565b7f455243313135353a206163636f756e747320616e6420696473206c656e67746860008201527f206d69736d617463680000000000000000000000000000000000000000000000602082015250565b7f455243313135353a2069647320616e6420616d6f756e7473206c656e6774682060008201527f6d69736d61746368000000000000000000000000000000000000000000000000602082015250565b7f455243313135353a206d696e7420746f20746865207a65726f2061646472657360008201527f7300000000000000000000000000000000000000000000000000000000000000602082015250565b7f206973206d697373696e6720726f6c6520000000000000000000000000000000600082015250565b7f416363657373436f6e74726f6c3a2063616e206f6e6c792072656e6f756e636560008201527f20726f6c657320666f722073656c660000000000000000000000000000000000602082015250565b600060443d10156139b357613a36565b6139bb6130b4565b60043d036004823e80513d602482011167ffffffffffffffff821117156139e3575050613a36565b808201805167ffffffffffffffff811115613a015750505050613a36565b80602083010160043d038501811115613a1e575050505050613a36565b613a2d8260200185018661338f565b82955050505050505b90565b613a4281613273565b8114613a4d57600080fd5b50565b613a5981613285565b8114613a6457600080fd5b50565b613a7081613291565b8114613a7b57600080fd5b50565b613a878161329b565b8114613a9257600080fd5b50565b613a9e816132e7565b8114613aa957600080fd5b5056fea2646970667358221220bab3cc5f068de427a8b2cb962d073c4e1cc56a193ddc32e42ca1bb91e837f3ed64736f6c63430008010033",
  "immutableReferences": {},
  "source": "// SPDX-License-Identifier: MIT\npragma solidity >=0.8.0 <0.9.0;\nimport \"@openzeppelin/contracts/token/ERC1155/ERC1155.sol\";\nimport \"@openzeppelin/contracts/utils/Counters.sol\";\nimport \"@openzeppelin/contracts/access/AccessControl.sol\";\n\ncontract tokenFactory is ERC1155, AccessControl {\n  using Counters for Counters.Counter;\n  Counters.Counter public hightToken; \n\n  mapping (uint256 => mapping(address => bytes)) public verificationOf; \n\n//Set the general URI inside ERC1155's constructor \n  constructor() ERC1155(\"RESERVA TOKEN FACTORY\") {\n    super._setupRole(DEFAULT_ADMIN_ROLE, msg.sender);\n  }\n\n  function supportsInterface(bytes4 interfaceId) public view virtual override(ERC1155, AccessControl) returns (bool) {\n    return this.supportsInterface(interfaceId);\n  }\n\n  function createYield(\n    bytes memory _pova,\n    uint256 _amount, \n    address _addressGrower) external onlyRole(DEFAULT_ADMIN_ROLE) returns (bool) {\n      hightToken.increment();\n      uint256 newItemId = hightToken.current();\n      verificationOf[newItemId][_addressGrower] = _pova;\n      _mint(_addressGrower, newItemId, _amount, _pova);\n      return true;\n    }\n\n  function burnYield(address _grower, uint256 _tokenId, uint256 _amount) external returns (bool) {\n    _burn(_grower, _tokenId, _amount);\n    return true;\n  }  \n}\n",
  "sourcePath": "D:/Trabajo/0-Reservafs/Proyectos/Tokenization_of_Production_Project/Code/contracts/tokenFactory.sol",
  "compiler": {
    "name": "solc",
    "version": "0.8.1+commit.df193b15.Emscripten.clang"
  },
  "schemaVersion": "3.3.4",
  "updatedAt": "2021-08-01T01:26:20.404Z",
  "devdoc": {
    "kind": "dev",
    "methods": {
      "balanceOf(address,uint256)": {
        "details": "See {IERC1155-balanceOf}. Requirements: - `account` cannot be the zero address."
      },
      "balanceOfBatch(address[],uint256[])": {
        "details": "See {IERC1155-balanceOfBatch}. Requirements: - `accounts` and `ids` must have the same length."
      },
      "getRoleAdmin(bytes32)": {
        "details": "Returns the admin role that controls `role`. See {grantRole} and {revokeRole}. To change a role's admin, use {_setRoleAdmin}."
      },
      "grantRole(bytes32,address)": {
        "details": "Grants `role` to `account`. If `account` had not been already granted `role`, emits a {RoleGranted} event. Requirements: - the caller must have ``role``'s admin role."
      },
      "hasRole(bytes32,address)": {
        "details": "Returns `true` if `account` has been granted `role`."
      },
      "isApprovedForAll(address,address)": {
        "details": "See {IERC1155-isApprovedForAll}."
      },
      "renounceRole(bytes32,address)": {
        "details": "Revokes `role` from the calling account. Roles are often managed via {grantRole} and {revokeRole}: this function's purpose is to provide a mechanism for accounts to lose their privileges if they are compromised (such as when a trusted device is misplaced). If the calling account had been granted `role`, emits a {RoleRevoked} event. Requirements: - the caller must be `account`."
      },
      "revokeRole(bytes32,address)": {
        "details": "Revokes `role` from `account`. If `account` had been granted `role`, emits a {RoleRevoked} event. Requirements: - the caller must have ``role``'s admin role."
      },
      "safeBatchTransferFrom(address,address,uint256[],uint256[],bytes)": {
        "details": "See {IERC1155-safeBatchTransferFrom}."
      },
      "safeTransferFrom(address,address,uint256,uint256,bytes)": {
        "details": "See {IERC1155-safeTransferFrom}."
      },
      "setApprovalForAll(address,bool)": {
        "details": "See {IERC1155-setApprovalForAll}."
      },
      "uri(uint256)": {
        "details": "See {IERC1155MetadataURI-uri}. This implementation returns the same URI for *all* token types. It relies on the token type ID substitution mechanism https://eips.ethereum.org/EIPS/eip-1155#metadata[defined in the EIP]. Clients calling this function must replace the `\\{id\\}` substring with the actual token type ID."
      }
    },
    "version": 1
  },
  "userdoc": {
    "kind": "user",
    "methods": {},
    "version": 1
  }
}