{
  "contractName": "tokenFactory",
  "abi": [
    {
      "inputs": [],
      "stateMutability": "nonpayable",
      "type": "constructor"
    },
    {
      "anonymous": false,
      "inputs": [
        {
          "indexed": true,
          "internalType": "address",
          "name": "account",
          "type": "address"
        },
        {
          "indexed": true,
          "internalType": "address",
          "name": "operator",
          "type": "address"
        },
        {
          "indexed": false,
          "internalType": "bool",
          "name": "approved",
          "type": "bool"
        }
      ],
      "name": "ApprovalForAll",
      "type": "event"
    },
    {
      "anonymous": false,
      "inputs": [
        {
          "indexed": true,
          "internalType": "bytes32",
          "name": "role",
          "type": "bytes32"
        },
        {
          "indexed": true,
          "internalType": "bytes32",
          "name": "previousAdminRole",
          "type": "bytes32"
        },
        {
          "indexed": true,
          "internalType": "bytes32",
          "name": "newAdminRole",
          "type": "bytes32"
        }
      ],
      "name": "RoleAdminChanged",
      "type": "event"
    },
    {
      "anonymous": false,
      "inputs": [
        {
          "indexed": true,
          "internalType": "bytes32",
          "name": "role",
          "type": "bytes32"
        },
        {
          "indexed": true,
          "internalType": "address",
          "name": "account",
          "type": "address"
        },
        {
          "indexed": true,
          "internalType": "address",
          "name": "sender",
          "type": "address"
        }
      ],
      "name": "RoleGranted",
      "type": "event"
    },
    {
      "anonymous": false,
      "inputs": [
        {
          "indexed": true,
          "internalType": "bytes32",
          "name": "role",
          "type": "bytes32"
        },
        {
          "indexed": true,
          "internalType": "address",
          "name": "account",
          "type": "address"
        },
        {
          "indexed": true,
          "internalType": "address",
          "name": "sender",
          "type": "address"
        }
      ],
      "name": "RoleRevoked",
      "type": "event"
    },
    {
      "anonymous": false,
      "inputs": [
        {
          "indexed": true,
          "internalType": "address",
          "name": "operator",
          "type": "address"
        },
        {
          "indexed": true,
          "internalType": "address",
          "name": "from",
          "type": "address"
        },
        {
          "indexed": true,
          "internalType": "address",
          "name": "to",
          "type": "address"
        },
        {
          "indexed": false,
          "internalType": "uint256[]",
          "name": "ids",
          "type": "uint256[]"
        },
        {
          "indexed": false,
          "internalType": "uint256[]",
          "name": "values",
          "type": "uint256[]"
        }
      ],
      "name": "TransferBatch",
      "type": "event"
    },
    {
      "anonymous": false,
      "inputs": [
        {
          "indexed": true,
          "internalType": "address",
          "name": "operator",
          "type": "address"
        },
        {
          "indexed": true,
          "internalType": "address",
          "name": "from",
          "type": "address"
        },
        {
          "indexed": true,
          "internalType": "address",
          "name": "to",
          "type": "address"
        },
        {
          "indexed": false,
          "internalType": "uint256",
          "name": "id",
          "type": "uint256"
        },
        {
          "indexed": false,
          "internalType": "uint256",
          "name": "value",
          "type": "uint256"
        }
      ],
      "name": "TransferSingle",
      "type": "event"
    },
    {
      "anonymous": false,
      "inputs": [
        {
          "indexed": false,
          "internalType": "string",
          "name": "value",
          "type": "string"
        },
        {
          "indexed": true,
          "internalType": "uint256",
          "name": "id",
          "type": "uint256"
        }
      ],
      "name": "URI",
      "type": "event"
    },
    {
      "inputs": [],
      "name": "DEFAULT_ADMIN_ROLE",
      "outputs": [
        {
          "internalType": "bytes32",
          "name": "",
          "type": "bytes32"
        }
      ],
      "stateMutability": "view",
      "type": "function"
    },
    {
      "inputs": [
        {
          "internalType": "address",
          "name": "account",
          "type": "address"
        },
        {
          "internalType": "uint256",
          "name": "id",
          "type": "uint256"
        }
      ],
      "name": "balanceOf",
      "outputs": [
        {
          "internalType": "uint256",
          "name": "",
          "type": "uint256"
        }
      ],
      "stateMutability": "view",
      "type": "function"
    },
    {
      "inputs": [
        {
          "internalType": "address[]",
          "name": "accounts",
          "type": "address[]"
        },
        {
          "internalType": "uint256[]",
          "name": "ids",
          "type": "uint256[]"
        }
      ],
      "name": "balanceOfBatch",
      "outputs": [
        {
          "internalType": "uint256[]",
          "name": "",
          "type": "uint256[]"
        }
      ],
      "stateMutability": "view",
      "type": "function"
    },
    {
      "inputs": [
        {
          "internalType": "bytes32",
          "name": "role",
          "type": "bytes32"
        }
      ],
      "name": "getRoleAdmin",
      "outputs": [
        {
          "internalType": "bytes32",
          "name": "",
          "type": "bytes32"
        }
      ],
      "stateMutability": "view",
      "type": "function"
    },
    {
      "inputs": [
        {
          "internalType": "bytes32",
          "name": "role",
          "type": "bytes32"
        },
        {
          "internalType": "address",
          "name": "account",
          "type": "address"
        }
      ],
      "name": "grantRole",
      "outputs": [],
      "stateMutability": "nonpayable",
      "type": "function"
    },
    {
      "inputs": [
        {
          "internalType": "bytes32",
          "name": "role",
          "type": "bytes32"
        },
        {
          "internalType": "address",
          "name": "account",
          "type": "address"
        }
      ],
      "name": "hasRole",
      "outputs": [
        {
          "internalType": "bool",
          "name": "",
          "type": "bool"
        }
      ],
      "stateMutability": "view",
      "type": "function"
    },
    {
      "inputs": [],
      "name": "hightToken",
      "outputs": [
        {
          "internalType": "uint256",
          "name": "_value",
          "type": "uint256"
        }
      ],
      "stateMutability": "view",
      "type": "function"
    },
    {
      "inputs": [
        {
          "internalType": "address",
          "name": "account",
          "type": "address"
        },
        {
          "internalType": "address",
          "name": "operator",
          "type": "address"
        }
      ],
      "name": "isApprovedForAll",
      "outputs": [
        {
          "internalType": "bool",
          "name": "",
          "type": "bool"
        }
      ],
      "stateMutability": "view",
      "type": "function"
    },
    {
      "inputs": [
        {
          "internalType": "bytes32",
          "name": "role",
          "type": "bytes32"
        },
        {
          "internalType": "address",
          "name": "account",
          "type": "address"
        }
      ],
      "name": "renounceRole",
      "outputs": [],
      "stateMutability": "nonpayable",
      "type": "function"
    },
    {
      "inputs": [
        {
          "internalType": "bytes32",
          "name": "role",
          "type": "bytes32"
        },
        {
          "internalType": "address",
          "name": "account",
          "type": "address"
        }
      ],
      "name": "revokeRole",
      "outputs": [],
      "stateMutability": "nonpayable",
      "type": "function"
    },
    {
      "inputs": [
        {
          "internalType": "address",
          "name": "from",
          "type": "address"
        },
        {
          "internalType": "address",
          "name": "to",
          "type": "address"
        },
        {
          "internalType": "uint256[]",
          "name": "ids",
          "type": "uint256[]"
        },
        {
          "internalType": "uint256[]",
          "name": "amounts",
          "type": "uint256[]"
        },
        {
          "internalType": "bytes",
          "name": "data",
          "type": "bytes"
        }
      ],
      "name": "safeBatchTransferFrom",
      "outputs": [],
      "stateMutability": "nonpayable",
      "type": "function"
    },
    {
      "inputs": [
        {
          "internalType": "address",
          "name": "from",
          "type": "address"
        },
        {
          "internalType": "address",
          "name": "to",
          "type": "address"
        },
        {
          "internalType": "uint256",
          "name": "id",
          "type": "uint256"
        },
        {
          "internalType": "uint256",
          "name": "amount",
          "type": "uint256"
        },
        {
          "internalType": "bytes",
          "name": "data",
          "type": "bytes"
        }
      ],
      "name": "safeTransferFrom",
      "outputs": [],
      "stateMutability": "nonpayable",
      "type": "function"
    },
    {
      "inputs": [
        {
          "internalType": "address",
          "name": "operator",
          "type": "address"
        },
        {
          "internalType": "bool",
          "name": "approved",
          "type": "bool"
        }
      ],
      "name": "setApprovalForAll",
      "outputs": [],
      "stateMutability": "nonpayable",
      "type": "function"
    },
    {
      "inputs": [
        {
          "internalType": "uint256",
          "name": "",
          "type": "uint256"
        }
      ],
      "name": "uri",
      "outputs": [
        {
          "internalType": "string",
          "name": "",
          "type": "string"
        }
      ],
      "stateMutability": "view",
      "type": "function"
    },
    {
      "inputs": [
        {
          "internalType": "uint256",
          "name": "",
          "type": "uint256"
        },
        {
          "internalType": "address",
          "name": "",
          "type": "address"
        }
      ],
      "name": "verificationOf",
      "outputs": [
        {
          "internalType": "bytes",
          "name": "",
          "type": "bytes"
        }
      ],
      "stateMutability": "view",
      "type": "function"
    },
    {
      "inputs": [
        {
          "internalType": "bytes4",
          "name": "interfaceId",
          "type": "bytes4"
        }
      ],
      "name": "supportsInterface",
      "outputs": [
        {
          "internalType": "bool",
          "name": "",
          "type": "bool"
        }
      ],
      "stateMutability": "view",
      "type": "function"
    },
    {
      "inputs": [
        {
          "internalType": "bytes",
          "name": "_pova",
          "type": "bytes"
        },
        {
          "internalType": "uint256",
          "name": "_amount",
          "type": "uint256"
        },
        {
          "internalType": "address",
          "name": "_addressGrower",
          "type": "address"
        }
      ],
      "name": "createYield",
      "outputs": [
        {
          "internalType": "bool",
          "name": "",
          "type": "bool"
        }
      ],
      "stateMutability": "nonpayable",
      "type": "function"
    }
  ],
  "bytecode": "0x60806040523480156200001157600080fd5b506040518060400160405280601581526020017f5245534552564120544f4b454e20464143544f5259000000000000000000000081525062000059816200007a60201b60201c565b50620000746000801b336200009660201b62000ce71760201c565b62000326565b80600290805190602001906200009292919062000211565b5050565b620000a88282620000ac60201b60201c565b5050565b620000be82826200019e60201b60201c565b6200019a5760016003600084815260200190815260200160002060000160008373ffffffffffffffffffffffffffffffffffffffff1673ffffffffffffffffffffffffffffffffffffffff16815260200190815260200160002060006101000a81548160ff0219169083151502179055506200013f6200020960201b60201c565b73ffffffffffffffffffffffffffffffffffffffff168173ffffffffffffffffffffffffffffffffffffffff16837f2f8788117e7eff1d82e926ec794901d17c78024a50270940304540a733656f0d60405160405180910390a45b5050565b60006003600084815260200190815260200160002060000160008373ffffffffffffffffffffffffffffffffffffffff1673ffffffffffffffffffffffffffffffffffffffff16815260200190815260200160002060009054906101000a900460ff16905092915050565b600033905090565b8280546200021f90620002c1565b90600052602060002090601f0160209004810192826200024357600085556200028f565b82601f106200025e57805160ff19168380011785556200028f565b828001600101855582156200028f579182015b828111156200028e57825182559160200191906001019062000271565b5b5090506200029e9190620002a2565b5090565b5b80821115620002bd576000816000905550600101620002a3565b5090565b60006002820490506001821680620002da57607f821691505b60208210811415620002f157620002f0620002f7565b5b50919050565b7f4e487b7100000000000000000000000000000000000000000000000000000000600052602260045260246000fd5b6137dd80620003366000396000f3fe608060405234801561001057600080fd5b506004361061010a5760003560e01c80634e1273f4116100a2578063a22cb46511610071578063a22cb465146102ef578063d547741f1461030b578063d953426514610327578063e985e9c514610357578063f242432a146103875761010a565b80634e1273f4146102415780637f5ebce11461027157806391d14854146102a1578063a217fddf146102d15761010a565b8063248a9ca3116100de578063248a9ca3146101bd5780632eb2c2d6146101ed5780632f2ff15d1461020957806336568abe146102255761010a565b8062fdd58e1461010f57806301ffc9a71461013f5780630e89341c1461016f57806311e6ef351461019f575b600080fd5b610129600480360381019061012491906124e3565b6103a3565b6040516101369190612dee565b60405180910390f35b610159600480360381019061015491906125f0565b61046c565b6040516101669190612bd4565b60405180910390f35b610189600480360381019061018491906126a9565b61047e565b6040516101969190612c2c565b60405180910390f35b6101a7610512565b6040516101b49190612dee565b60405180910390f35b6101d760048036038101906101d2919061258b565b61051e565b6040516101e49190612bef565b60405180910390f35b61020760048036038101906102029190612359565b61053e565b005b610223600480360381019061021e91906125b4565b6105df565b005b61023f600480360381019061023a91906125b4565b610608565b005b61025b6004803603810190610256919061251f565b61068b565b6040516102689190612b7b565b60405180910390f35b61028b600480360381019061028691906126d2565b61083c565b6040516102989190612c0a565b60405180910390f35b6102bb60048036038101906102b691906125b4565b6108e9565b6040516102c89190612bd4565b60405180910390f35b6102d9610954565b6040516102e69190612bef565b60405180910390f35b610309600480360381019061030491906124a7565b61095b565b005b610325600480360381019061032091906125b4565b610adc565b005b610341600480360381019061033c9190612642565b610b05565b60405161034e9190612bd4565b60405180910390f35b610371600480360381019061036c919061231d565b610bb2565b60405161037e9190612bd4565b60405180910390f35b6103a1600480360381019061039c9190612418565b610c46565b005b60008073ffffffffffffffffffffffffffffffffffffffff168373ffffffffffffffffffffffffffffffffffffffff161415610414576040517f08c379a000000000000000000000000000000000000000000000000000000000815260040161040b90612cae565b60405180910390fd5b60008083815260200190815260200160002060008473ffffffffffffffffffffffffffffffffffffffff1673ffffffffffffffffffffffffffffffffffffffff16815260200190815260200160002054905092915050565b600061047782610cf5565b9050919050565b60606002805461048d906130f6565b80601f01602080910402602001604051908101604052809291908181526020018280546104b9906130f6565b80156105065780601f106104db57610100808354040283529160200191610506565b820191906000526020600020905b8154815290600101906020018083116104e957829003601f168201915b50505050509050919050565b60048060000154905081565b600060036000838152602001908152602001600020600101549050919050565b610546610d6f565b73ffffffffffffffffffffffffffffffffffffffff168573ffffffffffffffffffffffffffffffffffffffff16148061058c575061058b85610586610d6f565b610bb2565b5b6105cb576040517f08c379a00000000000000000000000000000000000000000000000000000000081526004016105c290612d0e565b60405180910390fd5b6105d88585858585610d77565b5050505050565b6105e88261051e565b6105f9816105f4610d6f565b6110d7565b6106038383611174565b505050565b610610610d6f565b73ffffffffffffffffffffffffffffffffffffffff168173ffffffffffffffffffffffffffffffffffffffff161461067d576040517f08c379a000000000000000000000000000000000000000000000000000000000815260040161067490612dce565b60405180910390fd5b6106878282611255565b5050565b606081518351146106d1576040517f08c379a00000000000000000000000000000000000000000000000000000000081526004016106c890612d6e565b60405180910390fd5b6000835167ffffffffffffffff811115610714577f4e487b7100000000000000000000000000000000000000000000000000000000600052604160045260246000fd5b6040519080825280602002602001820160405280156107425781602001602082028036833780820191505090505b50905060005b8451811015610831576107db85828151811061078d577f4e487b7100000000000000000000000000000000000000000000000000000000600052603260045260246000fd5b60200260200101518583815181106107ce577f4e487b7100000000000000000000000000000000000000000000000000000000600052603260045260246000fd5b60200260200101516103a3565b828281518110610814577f4e487b7100000000000000000000000000000000000000000000000000000000600052603260045260246000fd5b6020026020010181815250508061082a90613159565b9050610748565b508091505092915050565b6005602052816000526040600020602052806000526040600020600091509150508054610868906130f6565b80601f0160208091040260200160405190810160405280929190818152602001828054610894906130f6565b80156108e15780601f106108b6576101008083540402835291602001916108e1565b820191906000526020600020905b8154815290600101906020018083116108c457829003601f168201915b505050505081565b60006003600084815260200190815260200160002060000160008373ffffffffffffffffffffffffffffffffffffffff1673ffffffffffffffffffffffffffffffffffffffff16815260200190815260200160002060009054906101000a900460ff16905092915050565b6000801b81565b8173ffffffffffffffffffffffffffffffffffffffff1661097a610d6f565b73ffffffffffffffffffffffffffffffffffffffff1614156109d1576040517f08c379a00000000000000000000000000000000000000000000000000000000081526004016109c890612d4e565b60405180910390fd5b80600160006109de610d6f565b73ffffffffffffffffffffffffffffffffffffffff1673ffffffffffffffffffffffffffffffffffffffff16815260200190815260200160002060008473ffffffffffffffffffffffffffffffffffffffff1673ffffffffffffffffffffffffffffffffffffffff16815260200190815260200160002060006101000a81548160ff0219169083151502179055508173ffffffffffffffffffffffffffffffffffffffff16610a8b610d6f565b73ffffffffffffffffffffffffffffffffffffffff167f17307eab39ab6107e8899845ad3d59bd9653f200f220920489ca2b5937696c3183604051610ad09190612bd4565b60405180910390a35050565b610ae58261051e565b610af681610af1610d6f565b6110d7565b610b008383611255565b505050565b60008060001b610b1c81610b17610d6f565b6110d7565b610b266004611337565b6000610b32600461134d565b9050856005600083815260200190815260200160002060008673ffffffffffffffffffffffffffffffffffffffff1673ffffffffffffffffffffffffffffffffffffffff1681526020019081526020016000209080519060200190610b98929190612068565b50610ba58482878961135b565b6001925050509392505050565b6000600160008473ffffffffffffffffffffffffffffffffffffffff1673ffffffffffffffffffffffffffffffffffffffff16815260200190815260200160002060008373ffffffffffffffffffffffffffffffffffffffff1673ffffffffffffffffffffffffffffffffffffffff16815260200190815260200160002060009054906101000a900460ff16905092915050565b610c4e610d6f565b73ffffffffffffffffffffffffffffffffffffffff168573ffffffffffffffffffffffffffffffffffffffff161480610c945750610c9385610c8e610d6f565b610bb2565b5b610cd3576040517f08c379a0000000000000000000000000000000000000000000000000000000008152600401610cca90612cce565b60405180910390fd5b610ce085858585856114f1565b5050505050565b610cf18282611174565b5050565b60007f7965db0b000000000000000000000000000000000000000000000000000000007bffffffffffffffffffffffffffffffffffffffffffffffffffffffff1916827bffffffffffffffffffffffffffffffffffffffffffffffffffffffff19161480610d685750610d6782611773565b5b9050919050565b600033905090565b8151835114610dbb576040517f08c379a0000000000000000000000000000000000000000000000000000000008152600401610db290612d8e565b60405180910390fd5b600073ffffffffffffffffffffffffffffffffffffffff168473ffffffffffffffffffffffffffffffffffffffff161415610e2b576040517f08c379a0000000000000000000000000000000000000000000000000000000008152600401610e2290612cee565b60405180910390fd5b6000610e35610d6f565b9050610e45818787878787611855565b60005b8451811015611042576000858281518110610e8c577f4e487b7100000000000000000000000000000000000000000000000000000000600052603260045260246000fd5b602002602001015190506000858381518110610ed1577f4e487b7100000000000000000000000000000000000000000000000000000000600052603260045260246000fd5b60200260200101519050600080600084815260200190815260200160002060008b73ffffffffffffffffffffffffffffffffffffffff1673ffffffffffffffffffffffffffffffffffffffff16815260200190815260200160002054905081811015610f72576040517f08c379a0000000000000000000000000000000000000000000000000000000008152600401610f6990612d2e565b60405180910390fd5b81810360008085815260200190815260200160002060008c73ffffffffffffffffffffffffffffffffffffffff1673ffffffffffffffffffffffffffffffffffffffff168152602001908152602001600020819055508160008085815260200190815260200160002060008b73ffffffffffffffffffffffffffffffffffffffff1673ffffffffffffffffffffffffffffffffffffffff16815260200190815260200160002060008282546110279190612f5c565b925050819055505050508061103b90613159565b9050610e48565b508473ffffffffffffffffffffffffffffffffffffffff168673ffffffffffffffffffffffffffffffffffffffff168273ffffffffffffffffffffffffffffffffffffffff167f4a39dc06d4c0dbc64b70af90fd698a233a518aa5d07e595d983b8c0526c8f7fb87876040516110b9929190612b9d565b60405180910390a46110cf81878787878761185d565b505050505050565b6110e182826108e9565b611170576111068173ffffffffffffffffffffffffffffffffffffffff166014611a44565b6111148360001c6020611a44565b604051602001611125929190612a7f565b6040516020818303038152906040526040517f08c379a00000000000000000000000000000000000000000000000000000000081526004016111679190612c2c565b60405180910390fd5b5050565b61117e82826108e9565b6112515760016003600084815260200190815260200160002060000160008373ffffffffffffffffffffffffffffffffffffffff1673ffffffffffffffffffffffffffffffffffffffff16815260200190815260200160002060006101000a81548160ff0219169083151502179055506111f6610d6f565b73ffffffffffffffffffffffffffffffffffffffff168173ffffffffffffffffffffffffffffffffffffffff16837f2f8788117e7eff1d82e926ec794901d17c78024a50270940304540a733656f0d60405160405180910390a45b5050565b61125f82826108e9565b156113335760006003600084815260200190815260200160002060000160008373ffffffffffffffffffffffffffffffffffffffff1673ffffffffffffffffffffffffffffffffffffffff16815260200190815260200160002060006101000a81548160ff0219169083151502179055506112d8610d6f565b73ffffffffffffffffffffffffffffffffffffffff168173ffffffffffffffffffffffffffffffffffffffff16837ff6391f5c32d9c69d2a47ea670b442974b53935d1edc7fd64eb21e047a839171b60405160405180910390a45b5050565b6001816000016000828254019250508190555050565b600081600001549050919050565b600073ffffffffffffffffffffffffffffffffffffffff168473ffffffffffffffffffffffffffffffffffffffff1614156113cb576040517f08c379a00000000000000000000000000000000000000000000000000000000081526004016113c290612dae565b60405180910390fd5b60006113d5610d6f565b90506113f6816000876113e788611d3e565b6113f088611d3e565b87611855565b8260008086815260200190815260200160002060008773ffffffffffffffffffffffffffffffffffffffff1673ffffffffffffffffffffffffffffffffffffffff16815260200190815260200160002060008282546114559190612f5c565b925050819055508473ffffffffffffffffffffffffffffffffffffffff16600073ffffffffffffffffffffffffffffffffffffffff168273ffffffffffffffffffffffffffffffffffffffff167fc3d58168c5ae7397731d063d5bbf3d657854427343f4c083240f7aacaa2d0f6287876040516114d3929190612e09565b60405180910390a46114ea81600087878787611e04565b5050505050565b600073ffffffffffffffffffffffffffffffffffffffff168473ffffffffffffffffffffffffffffffffffffffff161415611561576040517f08c379a000000000000000000000000000000000000000000000000000000000815260040161155890612cee565b60405180910390fd5b600061156b610d6f565b905061158b81878761157c88611d3e565b61158588611d3e565b87611855565b600080600086815260200190815260200160002060008873ffffffffffffffffffffffffffffffffffffffff1673ffffffffffffffffffffffffffffffffffffffff16815260200190815260200160002054905083811015611622576040517f08c379a000000000000000000000000000000000000000000000000000000000815260040161161990612d2e565b60405180910390fd5b83810360008087815260200190815260200160002060008973ffffffffffffffffffffffffffffffffffffffff1673ffffffffffffffffffffffffffffffffffffffff168152602001908152602001600020819055508360008087815260200190815260200160002060008873ffffffffffffffffffffffffffffffffffffffff1673ffffffffffffffffffffffffffffffffffffffff16815260200190815260200160002060008282546116d79190612f5c565b925050819055508573ffffffffffffffffffffffffffffffffffffffff168773ffffffffffffffffffffffffffffffffffffffff168373ffffffffffffffffffffffffffffffffffffffff167fc3d58168c5ae7397731d063d5bbf3d657854427343f4c083240f7aacaa2d0f628888604051611754929190612e09565b60405180910390a461176a828888888888611e04565b50505050505050565b60007fd9b67a26000000000000000000000000000000000000000000000000000000007bffffffffffffffffffffffffffffffffffffffffffffffffffffffff1916827bffffffffffffffffffffffffffffffffffffffffffffffffffffffff1916148061183e57507f0e89341c000000000000000000000000000000000000000000000000000000007bffffffffffffffffffffffffffffffffffffffffffffffffffffffff1916827bffffffffffffffffffffffffffffffffffffffffffffffffffffffff1916145b8061184e575061184d82611feb565b5b9050919050565b505050505050565b61187c8473ffffffffffffffffffffffffffffffffffffffff16612055565b15611a3c578373ffffffffffffffffffffffffffffffffffffffff1663bc197c8187878686866040518663ffffffff1660e01b81526004016118c2959493929190612ab9565b602060405180830381600087803b1580156118dc57600080fd5b505af192505050801561190d57506040513d601f19601f8201168201806040525081019061190a9190612619565b60015b6119b35761191961322f565b806308c379a01415611976575061192e61369e565b806119395750611978565b806040517f08c379a000000000000000000000000000000000000000000000000000000000815260040161196d9190612c2c565b60405180910390fd5b505b6040517f08c379a00000000000000000000000000000000000000000000000000000000081526004016119aa90612c4e565b60405180910390fd5b63bc197c8160e01b7bffffffffffffffffffffffffffffffffffffffffffffffffffffffff1916817bffffffffffffffffffffffffffffffffffffffffffffffffffffffff191614611a3a576040517f08c379a0000000000000000000000000000000000000000000000000000000008152600401611a3190612c8e565b60405180910390fd5b505b505050505050565b606060006002836002611a579190612fb2565b611a619190612f5c565b67ffffffffffffffff811115611aa0577f4e487b7100000000000000000000000000000000000000000000000000000000600052604160045260246000fd5b6040519080825280601f01601f191660200182016040528015611ad25781602001600182028036833780820191505090505b5090507f300000000000000000000000000000000000000000000000000000000000000081600081518110611b30577f4e487b7100000000000000000000000000000000000000000000000000000000600052603260045260246000fd5b60200101907effffffffffffffffffffffffffffffffffffffffffffffffffffffffffffff1916908160001a9053507f780000000000000000000000000000000000000000000000000000000000000081600181518110611bba577f4e487b7100000000000000000000000000000000000000000000000000000000600052603260045260246000fd5b60200101907effffffffffffffffffffffffffffffffffffffffffffffffffffffffffffff1916908160001a90535060006001846002611bfa9190612fb2565b611c049190612f5c565b90505b6001811115611cf0577f3031323334353637383961626364656600000000000000000000000000000000600f861660108110611c6c577f4e487b7100000000000000000000000000000000000000000000000000000000600052603260045260246000fd5b1a60f81b828281518110611ca9577f4e487b7100000000000000000000000000000000000000000000000000000000600052603260045260246000fd5b60200101907effffffffffffffffffffffffffffffffffffffffffffffffffffffffffffff1916908160001a905350600485901c945080611ce9906130cc565b9050611c07565b5060008414611d34576040517f08c379a0000000000000000000000000000000000000000000000000000000008152600401611d2b90612c6e565b60405180910390fd5b8091505092915050565b60606000600167ffffffffffffffff811115611d83577f4e487b7100000000000000000000000000000000000000000000000000000000600052604160045260246000fd5b604051908082528060200260200182016040528015611db15781602001602082028036833780820191505090505b5090508281600081518110611def577f4e487b7100000000000000000000000000000000000000000000000000000000600052603260045260246000fd5b60200260200101818152505080915050919050565b611e238473ffffffffffffffffffffffffffffffffffffffff16612055565b15611fe3578373ffffffffffffffffffffffffffffffffffffffff1663f23a6e6187878686866040518663ffffffff1660e01b8152600401611e69959493929190612b21565b602060405180830381600087803b158015611e8357600080fd5b505af1925050508015611eb457506040513d601f19601f82011682018060405250810190611eb19190612619565b60015b611f5a57611ec061322f565b806308c379a01415611f1d5750611ed561369e565b80611ee05750611f1f565b806040517f08c379a0000000000000000000000000000000000000000000000000000000008152600401611f149190612c2c565b60405180910390fd5b505b6040517f08c379a0000000000000000000000000000000000000000000000000000000008152600401611f5190612c4e565b60405180910390fd5b63f23a6e6160e01b7bffffffffffffffffffffffffffffffffffffffffffffffffffffffff1916817bffffffffffffffffffffffffffffffffffffffffffffffffffffffff191614611fe1576040517f08c379a0000000000000000000000000000000000000000000000000000000008152600401611fd890612c8e565b60405180910390fd5b505b505050505050565b60007f01ffc9a7000000000000000000000000000000000000000000000000000000007bffffffffffffffffffffffffffffffffffffffffffffffffffffffff1916827bffffffffffffffffffffffffffffffffffffffffffffffffffffffff1916149050919050565b600080823b905060008111915050919050565b828054612074906130f6565b90600052602060002090601f01602090048101928261209657600085556120dd565b82601f106120af57805160ff19168380011785556120dd565b828001600101855582156120dd579182015b828111156120dc5782518255916020019190600101906120c1565b5b5090506120ea91906120ee565b5090565b5b808211156121075760008160009055506001016120ef565b5090565b600061211e61211984612e57565b612e32565b9050808382526020820190508285602086028201111561213d57600080fd5b60005b8581101561216d57816121538882612221565b845260208401935060208301925050600181019050612140565b5050509392505050565b600061218a61218584612e83565b612e32565b905080838252602082019050828560208602820111156121a957600080fd5b60005b858110156121d957816121bf8882612308565b8452602084019350602083019250506001810190506121ac565b5050509392505050565b60006121f66121f184612eaf565b612e32565b90508281526020810184848401111561220e57600080fd5b61221984828561308a565b509392505050565b60008135905061223081613734565b92915050565b600082601f83011261224757600080fd5b813561225784826020860161210b565b91505092915050565b600082601f83011261227157600080fd5b8135612281848260208601612177565b91505092915050565b6000813590506122998161374b565b92915050565b6000813590506122ae81613762565b92915050565b6000813590506122c381613779565b92915050565b6000815190506122d881613779565b92915050565b600082601f8301126122ef57600080fd5b81356122ff8482602086016121e3565b91505092915050565b60008135905061231781613790565b92915050565b6000806040838503121561233057600080fd5b600061233e85828601612221565b925050602061234f85828601612221565b9150509250929050565b600080600080600060a0868803121561237157600080fd5b600061237f88828901612221565b955050602061239088828901612221565b945050604086013567ffffffffffffffff8111156123ad57600080fd5b6123b988828901612260565b935050606086013567ffffffffffffffff8111156123d657600080fd5b6123e288828901612260565b925050608086013567ffffffffffffffff8111156123ff57600080fd5b61240b888289016122de565b9150509295509295909350565b600080600080600060a0868803121561243057600080fd5b600061243e88828901612221565b955050602061244f88828901612221565b945050604061246088828901612308565b935050606061247188828901612308565b925050608086013567ffffffffffffffff81111561248e57600080fd5b61249a888289016122de565b9150509295509295909350565b600080604083850312156124ba57600080fd5b60006124c885828601612221565b92505060206124d98582860161228a565b9150509250929050565b600080604083850312156124f657600080fd5b600061250485828601612221565b925050602061251585828601612308565b9150509250929050565b6000806040838503121561253257600080fd5b600083013567ffffffffffffffff81111561254c57600080fd5b61255885828601612236565b925050602083013567ffffffffffffffff81111561257557600080fd5b61258185828601612260565b9150509250929050565b60006020828403121561259d57600080fd5b60006125ab8482850161229f565b91505092915050565b600080604083850312156125c757600080fd5b60006125d58582860161229f565b92505060206125e685828601612221565b9150509250929050565b60006020828403121561260257600080fd5b6000612610848285016122b4565b91505092915050565b60006020828403121561262b57600080fd5b6000612639848285016122c9565b91505092915050565b60008060006060848603121561265757600080fd5b600084013567ffffffffffffffff81111561267157600080fd5b61267d868287016122de565b935050602061268e86828701612308565b925050604061269f86828701612221565b9150509250925092565b6000602082840312156126bb57600080fd5b60006126c984828501612308565b91505092915050565b600080604083850312156126e557600080fd5b60006126f385828601612308565b925050602061270485828601612221565b9150509250929050565b600061271a8383612a61565b60208301905092915050565b61272f8161300c565b82525050565b600061274082612ef0565b61274a8185612f1e565b935061275583612ee0565b8060005b8381101561278657815161276d888261270e565b975061277883612f11565b925050600181019050612759565b5085935050505092915050565b61279c8161301e565b82525050565b6127ab8161302a565b82525050565b60006127bc82612efb565b6127c68185612f2f565b93506127d6818560208601613099565b6127df81613251565b840191505092915050565b60006127f582612f06565b6127ff8185612f40565b935061280f818560208601613099565b61281881613251565b840191505092915050565b600061282e82612f06565b6128388185612f51565b9350612848818560208601613099565b80840191505092915050565b6000612861603483612f40565b915061286c8261326f565b604082019050919050565b6000612884602083612f40565b915061288f826132be565b602082019050919050565b60006128a7602883612f40565b91506128b2826132e7565b604082019050919050565b60006128ca602b83612f40565b91506128d582613336565b604082019050919050565b60006128ed602983612f40565b91506128f882613385565b604082019050919050565b6000612910602583612f40565b915061291b826133d4565b604082019050919050565b6000612933603283612f40565b915061293e82613423565b604082019050919050565b6000612956602a83612f40565b915061296182613472565b604082019050919050565b6000612979601783612f51565b9150612984826134c1565b601782019050919050565b600061299c602983612f40565b91506129a7826134ea565b604082019050919050565b60006129bf602983612f40565b91506129ca82613539565b604082019050919050565b60006129e2602883612f40565b91506129ed82613588565b604082019050919050565b6000612a05602183612f40565b9150612a10826135d7565b604082019050919050565b6000612a28601183612f51565b9150612a3382613626565b601182019050919050565b6000612a4b602f83612f40565b9150612a568261364f565b604082019050919050565b612a6a81613080565b82525050565b612a7981613080565b82525050565b6000612a8a8261296c565b9150612a968285612823565b9150612aa182612a1b565b9150612aad8284612823565b91508190509392505050565b600060a082019050612ace6000830188612726565b612adb6020830187612726565b8181036040830152612aed8186612735565b90508181036060830152612b018185612735565b90508181036080830152612b1581846127b1565b90509695505050505050565b600060a082019050612b366000830188612726565b612b436020830187612726565b612b506040830186612a70565b612b5d6060830185612a70565b8181036080830152612b6f81846127b1565b90509695505050505050565b60006020820190508181036000830152612b958184612735565b905092915050565b60006040820190508181036000830152612bb78185612735565b90508181036020830152612bcb8184612735565b90509392505050565b6000602082019050612be96000830184612793565b92915050565b6000602082019050612c0460008301846127a2565b92915050565b60006020820190508181036000830152612c2481846127b1565b905092915050565b60006020820190508181036000830152612c4681846127ea565b905092915050565b60006020820190508181036000830152612c6781612854565b9050919050565b60006020820190508181036000830152612c8781612877565b9050919050565b60006020820190508181036000830152612ca78161289a565b9050919050565b60006020820190508181036000830152612cc7816128bd565b9050919050565b60006020820190508181036000830152612ce7816128e0565b9050919050565b60006020820190508181036000830152612d0781612903565b9050919050565b60006020820190508181036000830152612d2781612926565b9050919050565b60006020820190508181036000830152612d4781612949565b9050919050565b60006020820190508181036000830152612d678161298f565b9050919050565b60006020820190508181036000830152612d87816129b2565b9050919050565b60006020820190508181036000830152612da7816129d5565b9050919050565b60006020820190508181036000830152612dc7816129f8565b9050919050565b60006020820190508181036000830152612de781612a3e565b9050919050565b6000602082019050612e036000830184612a70565b92915050565b6000604082019050612e1e6000830185612a70565b612e2b6020830184612a70565b9392505050565b6000612e3c612e4d565b9050612e488282613128565b919050565b6000604051905090565b600067ffffffffffffffff821115612e7257612e71613200565b5b602082029050602081019050919050565b600067ffffffffffffffff821115612e9e57612e9d613200565b5b602082029050602081019050919050565b600067ffffffffffffffff821115612eca57612ec9613200565b5b612ed382613251565b9050602081019050919050565b6000819050602082019050919050565b600081519050919050565b600081519050919050565b600081519050919050565b6000602082019050919050565b600082825260208201905092915050565b600082825260208201905092915050565b600082825260208201905092915050565b600081905092915050565b6000612f6782613080565b9150612f7283613080565b9250827fffffffffffffffffffffffffffffffffffffffffffffffffffffffffffffffff03821115612fa757612fa66131a2565b5b828201905092915050565b6000612fbd82613080565b9150612fc883613080565b9250817fffffffffffffffffffffffffffffffffffffffffffffffffffffffffffffffff0483118215151615613001576130006131a2565b5b828202905092915050565b600061301782613060565b9050919050565b60008115159050919050565b6000819050919050565b60007fffffffff0000000000000000000000000000000000000000000000000000000082169050919050565b600073ffffffffffffffffffffffffffffffffffffffff82169050919050565b6000819050919050565b82818337600083830152505050565b60005b838110156130b757808201518184015260208101905061309c565b838111156130c6576000848401525b50505050565b60006130d782613080565b915060008214156130eb576130ea6131a2565b5b600182039050919050565b6000600282049050600182168061310e57607f821691505b60208210811415613122576131216131d1565b5b50919050565b61313182613251565b810181811067ffffffffffffffff821117156131505761314f613200565b5b80604052505050565b600061316482613080565b91507fffffffffffffffffffffffffffffffffffffffffffffffffffffffffffffffff821415613197576131966131a2565b5b600182019050919050565b7f4e487b7100000000000000000000000000000000000000000000000000000000600052601160045260246000fd5b7f4e487b7100000000000000000000000000000000000000000000000000000000600052602260045260246000fd5b7f4e487b7100000000000000000000000000000000000000000000000000000000600052604160045260246000fd5b600060033d111561324e5760046000803e61324b600051613262565b90505b90565b6000601f19601f8301169050919050565b60008160e01c9050919050565b7f455243313135353a207472616e7366657220746f206e6f6e204552433131353560008201527f526563656976657220696d706c656d656e746572000000000000000000000000602082015250565b7f537472696e67733a20686578206c656e67746820696e73756666696369656e74600082015250565b7f455243313135353a204552433131353552656365697665722072656a6563746560008201527f6420746f6b656e73000000000000000000000000000000000000000000000000602082015250565b7f455243313135353a2062616c616e636520717565727920666f7220746865207a60008201527f65726f2061646472657373000000000000000000000000000000000000000000602082015250565b7f455243313135353a2063616c6c6572206973206e6f74206f776e6572206e6f7260008201527f20617070726f7665640000000000000000000000000000000000000000000000602082015250565b7f455243313135353a207472616e7366657220746f20746865207a65726f20616460008201527f6472657373000000000000000000000000000000000000000000000000000000602082015250565b7f455243313135353a207472616e736665722063616c6c6572206973206e6f742060008201527f6f776e6572206e6f7220617070726f7665640000000000000000000000000000602082015250565b7f455243313135353a20696e73756666696369656e742062616c616e636520666f60008201527f72207472616e7366657200000000000000000000000000000000000000000000602082015250565b7f416363657373436f6e74726f6c3a206163636f756e7420000000000000000000600082015250565b7f455243313135353a2073657474696e6720617070726f76616c2073746174757360008201527f20666f722073656c660000000000000000000000000000000000000000000000602082015250565b7f455243313135353a206163636f756e747320616e6420696473206c656e67746860008201527f206d69736d617463680000000000000000000000000000000000000000000000602082015250565b7f455243313135353a2069647320616e6420616d6f756e7473206c656e6774682060008201527f6d69736d61746368000000000000000000000000000000000000000000000000602082015250565b7f455243313135353a206d696e7420746f20746865207a65726f2061646472657360008201527f7300000000000000000000000000000000000000000000000000000000000000602082015250565b7f206973206d697373696e6720726f6c6520000000000000000000000000000000600082015250565b7f416363657373436f6e74726f6c3a2063616e206f6e6c792072656e6f756e636560008201527f20726f6c657320666f722073656c660000000000000000000000000000000000602082015250565b600060443d10156136ae57613731565b6136b6612e4d565b60043d036004823e80513d602482011167ffffffffffffffff821117156136de575050613731565b808201805167ffffffffffffffff8111156136fc5750505050613731565b80602083010160043d038501811115613719575050505050613731565b61372882602001850186613128565b82955050505050505b90565b61373d8161300c565b811461374857600080fd5b50565b6137548161301e565b811461375f57600080fd5b50565b61376b8161302a565b811461377657600080fd5b50565b61378281613034565b811461378d57600080fd5b50565b61379981613080565b81146137a457600080fd5b5056fea26469706673582212204330452109d7b09ea32e649f7fda601e6110c6d216f6acaf38555294d7d373fb64736f6c63430008010033",
  "immutableReferences": {},
  "source": "// SPDX-License-Identifier: MIT\npragma solidity >=0.8.0 <0.9.0;\nimport \"@openzeppelin/contracts/token/ERC1155/ERC1155.sol\";\nimport \"@openzeppelin/contracts/utils/Counters.sol\";\nimport \"@openzeppelin/contracts/access/AccessControl.sol\";\n\ncontract tokenFactory is ERC1155, AccessControl {\n  using Counters for Counters.Counter;\n  Counters.Counter public hightToken; \n\n  mapping (uint256 => mapping(address => bytes)) public verificationOf; \n\n//Set the general URI inside ERC1155's constructor \n  constructor() ERC1155(\"RESERVA TOKEN FACTORY\") {\n    super._setupRole(DEFAULT_ADMIN_ROLE, msg.sender);\n  }\n\n  function supportsInterface(bytes4 interfaceId) public view virtual override(ERC1155, AccessControl) returns (bool) {\n    return super.supportsInterface(interfaceId);\n  }\n\n  function createYield(\n    bytes memory _pova,\n    uint256 _amount, \n    address _addressGrower) external onlyRole(DEFAULT_ADMIN_ROLE) returns (bool) {\n      hightToken.increment();\n      uint256 newItemId = hightToken.current();\n      verificationOf[newItemId][_addressGrower] = _pova;\n      _mint(_addressGrower, newItemId, _amount, _pova);\n      return true;\n    }  \n}\n",
  "sourcePath": "D:/Trabajo/0-Reservafs/Proyectos/Tokenization of Production Project/Code/contracts/tokenFactory.sol",
  "compiler": {
    "name": "solc",
    "version": "0.8.1+commit.df193b15.Emscripten.clang"
  },
  "schemaVersion": "3.3.4",
  "updatedAt": "2021-07-31T23:51:48.810Z",
  "devdoc": {
    "kind": "dev",
    "methods": {
      "balanceOf(address,uint256)": {
        "details": "See {IERC1155-balanceOf}. Requirements: - `account` cannot be the zero address."
      },
      "balanceOfBatch(address[],uint256[])": {
        "details": "See {IERC1155-balanceOfBatch}. Requirements: - `accounts` and `ids` must have the same length."
      },
      "getRoleAdmin(bytes32)": {
        "details": "Returns the admin role that controls `role`. See {grantRole} and {revokeRole}. To change a role's admin, use {_setRoleAdmin}."
      },
      "grantRole(bytes32,address)": {
        "details": "Grants `role` to `account`. If `account` had not been already granted `role`, emits a {RoleGranted} event. Requirements: - the caller must have ``role``'s admin role."
      },
      "hasRole(bytes32,address)": {
        "details": "Returns `true` if `account` has been granted `role`."
      },
      "isApprovedForAll(address,address)": {
        "details": "See {IERC1155-isApprovedForAll}."
      },
      "renounceRole(bytes32,address)": {
        "details": "Revokes `role` from the calling account. Roles are often managed via {grantRole} and {revokeRole}: this function's purpose is to provide a mechanism for accounts to lose their privileges if they are compromised (such as when a trusted device is misplaced). If the calling account had been granted `role`, emits a {RoleRevoked} event. Requirements: - the caller must be `account`."
      },
      "revokeRole(bytes32,address)": {
        "details": "Revokes `role` from `account`. If `account` had been granted `role`, emits a {RoleRevoked} event. Requirements: - the caller must have ``role``'s admin role."
      },
      "safeBatchTransferFrom(address,address,uint256[],uint256[],bytes)": {
        "details": "See {IERC1155-safeBatchTransferFrom}."
      },
      "safeTransferFrom(address,address,uint256,uint256,bytes)": {
        "details": "See {IERC1155-safeTransferFrom}."
      },
      "setApprovalForAll(address,bool)": {
        "details": "See {IERC1155-setApprovalForAll}."
      },
      "uri(uint256)": {
        "details": "See {IERC1155MetadataURI-uri}. This implementation returns the same URI for *all* token types. It relies on the token type ID substitution mechanism https://eips.ethereum.org/EIPS/eip-1155#metadata[defined in the EIP]. Clients calling this function must replace the `\\{id\\}` substring with the actual token type ID."
      }
    },
    "version": 1
  },
  "userdoc": {
    "kind": "user",
    "methods": {},
    "version": 1
  }
}